{
  "contractName": "Liquidity",
  "abi": [
    {
      "inputs": [],
      "stateMutability": "nonpayable",
      "type": "constructor"
    },
    {
      "anonymous": false,
      "inputs": [
        {
          "indexed": true,
          "internalType": "address",
          "name": "owner",
          "type": "address"
        },
        {
          "indexed": true,
          "internalType": "address",
          "name": "spender",
          "type": "address"
        },
        {
          "indexed": false,
          "internalType": "uint256",
          "name": "value",
          "type": "uint256"
        }
      ],
      "name": "Approval",
      "type": "event"
    },
    {
      "anonymous": false,
      "inputs": [
        {
          "indexed": true,
          "internalType": "address",
          "name": "delegator",
          "type": "address"
        },
        {
          "indexed": true,
          "internalType": "address",
          "name": "delegatee",
          "type": "address"
        },
        {
          "indexed": false,
          "internalType": "enum IGovernancePowerDelegationToken.DelegationType",
          "name": "delegationType",
          "type": "uint8"
        }
      ],
      "name": "DelegateChanged",
      "type": "event"
    },
    {
      "anonymous": false,
      "inputs": [
        {
          "indexed": true,
          "internalType": "address",
          "name": "user",
          "type": "address"
        },
        {
          "indexed": false,
          "internalType": "uint256",
          "name": "amount",
          "type": "uint256"
        },
        {
          "indexed": false,
          "internalType": "enum IGovernancePowerDelegationToken.DelegationType",
          "name": "delegationType",
          "type": "uint8"
        }
      ],
      "name": "DelegatedPowerChanged",
      "type": "event"
    },
    {
      "anonymous": false,
      "inputs": [
        {
          "indexed": true,
          "internalType": "address",
          "name": "from",
          "type": "address"
        },
        {
          "indexed": true,
          "internalType": "address",
          "name": "to",
          "type": "address"
        },
        {
          "indexed": false,
          "internalType": "uint256",
          "name": "value",
          "type": "uint256"
        }
      ],
      "name": "Transfer",
      "type": "event"
    },
    {
      "inputs": [],
      "name": "DELEGATE_BY_TYPE_TYPEHASH",
      "outputs": [
        {
          "internalType": "bytes32",
          "name": "",
          "type": "bytes32"
        }
      ],
      "stateMutability": "view",
      "type": "function",
      "constant": true
    },
    {
      "inputs": [],
      "name": "DELEGATE_TYPEHASH",
      "outputs": [
        {
          "internalType": "bytes32",
          "name": "",
          "type": "bytes32"
        }
      ],
      "stateMutability": "view",
      "type": "function",
      "constant": true
    },
    {
      "inputs": [],
      "name": "DOMAIN_SEPARATOR",
      "outputs": [
        {
          "internalType": "bytes32",
          "name": "",
          "type": "bytes32"
        }
      ],
      "stateMutability": "view",
      "type": "function",
      "constant": true
    },
    {
      "inputs": [],
      "name": "EIP712_REVISION",
      "outputs": [
        {
          "internalType": "bytes",
          "name": "",
          "type": "bytes"
        }
      ],
      "stateMutability": "view",
      "type": "function",
      "constant": true
    },
    {
      "inputs": [],
      "name": "PERMIT_TYPEHASH",
      "outputs": [
        {
          "internalType": "bytes32",
          "name": "",
          "type": "bytes32"
        }
      ],
      "stateMutability": "view",
      "type": "function",
      "constant": true
    },
    {
      "inputs": [],
      "name": "REVISION",
      "outputs": [
        {
          "internalType": "uint256",
          "name": "",
          "type": "uint256"
        }
      ],
      "stateMutability": "view",
      "type": "function",
      "constant": true
    },
    {
      "inputs": [],
      "name": "_liquidityGovernance",
      "outputs": [
        {
          "internalType": "contract ITransferHook",
          "name": "",
          "type": "address"
        }
      ],
      "stateMutability": "view",
      "type": "function",
      "constant": true
    },
    {
      "inputs": [
        {
          "internalType": "address",
          "name": "",
          "type": "address"
        }
      ],
      "name": "_nonces",
      "outputs": [
        {
          "internalType": "uint256",
          "name": "",
          "type": "uint256"
        }
      ],
      "stateMutability": "view",
      "type": "function",
      "constant": true
    },
    {
      "inputs": [
        {
          "internalType": "address",
          "name": "",
          "type": "address"
        },
        {
          "internalType": "uint256",
          "name": "",
          "type": "uint256"
        }
      ],
      "name": "_votingSnapshots",
      "outputs": [
        {
          "internalType": "uint128",
          "name": "blockNumber",
          "type": "uint128"
        },
        {
          "internalType": "uint128",
          "name": "value",
          "type": "uint128"
        }
      ],
      "stateMutability": "view",
      "type": "function",
      "constant": true
    },
    {
      "inputs": [
        {
          "internalType": "address",
          "name": "",
          "type": "address"
        }
      ],
      "name": "_votingSnapshotsCounts",
      "outputs": [
        {
          "internalType": "uint256",
          "name": "",
          "type": "uint256"
        }
      ],
      "stateMutability": "view",
      "type": "function",
      "constant": true
    },
    {
      "inputs": [
        {
          "internalType": "address",
          "name": "owner",
          "type": "address"
        },
        {
          "internalType": "address",
          "name": "spender",
          "type": "address"
        }
      ],
      "name": "allowance",
      "outputs": [
        {
          "internalType": "uint256",
          "name": "",
          "type": "uint256"
        }
      ],
      "stateMutability": "view",
      "type": "function",
      "constant": true
    },
    {
      "inputs": [
        {
          "internalType": "address",
          "name": "spender",
          "type": "address"
        },
        {
          "internalType": "uint256",
          "name": "amount",
          "type": "uint256"
        }
      ],
      "name": "approve",
      "outputs": [
        {
          "internalType": "bool",
          "name": "",
          "type": "bool"
        }
      ],
      "stateMutability": "nonpayable",
      "type": "function"
    },
    {
      "inputs": [
        {
          "internalType": "address",
          "name": "account",
          "type": "address"
        }
      ],
      "name": "balanceOf",
      "outputs": [
        {
          "internalType": "uint256",
          "name": "",
          "type": "uint256"
        }
      ],
      "stateMutability": "view",
      "type": "function",
      "constant": true
    },
    {
      "inputs": [],
      "name": "decimals",
      "outputs": [
        {
          "internalType": "uint8",
          "name": "",
          "type": "uint8"
        }
      ],
      "stateMutability": "view",
      "type": "function",
      "constant": true
    },
    {
      "inputs": [
        {
          "internalType": "address",
          "name": "spender",
          "type": "address"
        },
        {
          "internalType": "uint256",
          "name": "subtractedValue",
          "type": "uint256"
        }
      ],
      "name": "decreaseAllowance",
      "outputs": [
        {
          "internalType": "bool",
          "name": "",
          "type": "bool"
        }
      ],
      "stateMutability": "nonpayable",
      "type": "function"
    },
    {
      "inputs": [
        {
          "internalType": "address",
          "name": "delegatee",
          "type": "address"
        }
      ],
      "name": "delegate",
      "outputs": [],
      "stateMutability": "nonpayable",
      "type": "function"
    },
    {
      "inputs": [
        {
          "internalType": "address",
          "name": "delegatee",
          "type": "address"
        },
        {
          "internalType": "enum IGovernancePowerDelegationToken.DelegationType",
          "name": "delegationType",
          "type": "uint8"
        }
      ],
      "name": "delegateByType",
      "outputs": [],
      "stateMutability": "nonpayable",
      "type": "function"
    },
    {
      "inputs": [
        {
          "internalType": "address",
          "name": "delegator",
          "type": "address"
        },
        {
          "internalType": "enum IGovernancePowerDelegationToken.DelegationType",
          "name": "delegationType",
          "type": "uint8"
        }
      ],
      "name": "getDelegateeByType",
      "outputs": [
        {
          "internalType": "address",
          "name": "",
          "type": "address"
        }
      ],
      "stateMutability": "view",
      "type": "function",
      "constant": true
    },
    {
      "inputs": [
        {
          "internalType": "address",
          "name": "user",
          "type": "address"
        },
        {
          "internalType": "uint256",
          "name": "blockNumber",
          "type": "uint256"
        },
        {
          "internalType": "enum IGovernancePowerDelegationToken.DelegationType",
          "name": "delegationType",
          "type": "uint8"
        }
      ],
      "name": "getPowerAtBlock",
      "outputs": [
        {
          "internalType": "uint256",
          "name": "",
          "type": "uint256"
        }
      ],
      "stateMutability": "view",
      "type": "function",
      "constant": true
    },
    {
      "inputs": [
        {
          "internalType": "address",
          "name": "user",
          "type": "address"
        },
        {
          "internalType": "enum IGovernancePowerDelegationToken.DelegationType",
          "name": "delegationType",
          "type": "uint8"
        }
      ],
      "name": "getPowerCurrent",
      "outputs": [
        {
          "internalType": "uint256",
          "name": "",
          "type": "uint256"
        }
      ],
      "stateMutability": "view",
      "type": "function",
      "constant": true
    },
    {
      "inputs": [
        {
          "internalType": "address",
          "name": "spender",
          "type": "address"
        },
        {
          "internalType": "uint256",
          "name": "addedValue",
          "type": "uint256"
        }
      ],
      "name": "increaseAllowance",
      "outputs": [
        {
          "internalType": "bool",
          "name": "",
          "type": "bool"
        }
      ],
      "stateMutability": "nonpayable",
      "type": "function"
    },
    {
      "inputs": [],
      "name": "name",
      "outputs": [
        {
          "internalType": "string",
          "name": "",
          "type": "string"
        }
      ],
      "stateMutability": "view",
      "type": "function",
      "constant": true
    },
    {
      "inputs": [],
      "name": "symbol",
      "outputs": [
        {
          "internalType": "string",
          "name": "",
          "type": "string"
        }
      ],
      "stateMutability": "view",
      "type": "function",
      "constant": true
    },
    {
      "inputs": [],
      "name": "totalSupply",
      "outputs": [
        {
          "internalType": "uint256",
          "name": "",
          "type": "uint256"
        }
      ],
      "stateMutability": "view",
      "type": "function",
      "constant": true
    },
    {
      "inputs": [
        {
          "internalType": "uint256",
          "name": "blockNumber",
          "type": "uint256"
        }
      ],
      "name": "totalSupplyAt",
      "outputs": [
        {
          "internalType": "uint256",
          "name": "",
          "type": "uint256"
        }
      ],
      "stateMutability": "view",
      "type": "function",
      "constant": true
    },
    {
      "inputs": [
        {
          "internalType": "address",
          "name": "recipient",
          "type": "address"
        },
        {
          "internalType": "uint256",
          "name": "amount",
          "type": "uint256"
        }
      ],
      "name": "transfer",
      "outputs": [
        {
          "internalType": "bool",
          "name": "",
          "type": "bool"
        }
      ],
      "stateMutability": "nonpayable",
      "type": "function"
    },
    {
      "inputs": [
        {
          "internalType": "address",
          "name": "sender",
          "type": "address"
        },
        {
          "internalType": "address",
          "name": "recipient",
          "type": "address"
        },
        {
          "internalType": "uint256",
          "name": "amount",
          "type": "uint256"
        }
      ],
      "name": "transferFrom",
      "outputs": [
        {
          "internalType": "bool",
          "name": "",
          "type": "bool"
        }
      ],
      "stateMutability": "nonpayable",
      "type": "function"
    },
    {
      "inputs": [],
      "name": "initialize",
      "outputs": [],
      "stateMutability": "nonpayable",
      "type": "function"
    },
    {
      "inputs": [
        {
          "internalType": "address",
          "name": "owner",
          "type": "address"
        },
        {
          "internalType": "address",
          "name": "spender",
          "type": "address"
        },
        {
          "internalType": "uint256",
          "name": "value",
          "type": "uint256"
        },
        {
          "internalType": "uint256",
          "name": "deadline",
          "type": "uint256"
        },
        {
          "internalType": "uint8",
          "name": "v",
          "type": "uint8"
        },
        {
          "internalType": "bytes32",
          "name": "r",
          "type": "bytes32"
        },
        {
          "internalType": "bytes32",
          "name": "s",
          "type": "bytes32"
        }
      ],
      "name": "permit",
      "outputs": [],
      "stateMutability": "nonpayable",
      "type": "function"
    },
    {
      "inputs": [
        {
          "internalType": "address",
          "name": "delegatee",
          "type": "address"
        },
        {
          "internalType": "enum IGovernancePowerDelegationToken.DelegationType",
          "name": "delegationType",
          "type": "uint8"
        },
        {
          "internalType": "uint256",
          "name": "nonce",
          "type": "uint256"
        },
        {
          "internalType": "uint256",
          "name": "expiry",
          "type": "uint256"
        },
        {
          "internalType": "uint8",
          "name": "v",
          "type": "uint8"
        },
        {
          "internalType": "bytes32",
          "name": "r",
          "type": "bytes32"
        },
        {
          "internalType": "bytes32",
          "name": "s",
          "type": "bytes32"
        }
      ],
      "name": "delegateByTypeBySig",
      "outputs": [],
      "stateMutability": "nonpayable",
      "type": "function"
    },
    {
      "inputs": [
        {
          "internalType": "address",
          "name": "delegatee",
          "type": "address"
        },
        {
          "internalType": "uint256",
          "name": "nonce",
          "type": "uint256"
        },
        {
          "internalType": "uint256",
          "name": "expiry",
          "type": "uint256"
        },
        {
          "internalType": "uint8",
          "name": "v",
          "type": "uint8"
        },
        {
          "internalType": "bytes32",
          "name": "r",
          "type": "bytes32"
        },
        {
          "internalType": "bytes32",
          "name": "s",
          "type": "bytes32"
        }
      ],
      "name": "delegateBySig",
      "outputs": [],
      "stateMutability": "nonpayable",
      "type": "function"
    }
  ],
  "bytecode": "0x608060405260006005553480156200001657600080fd5b506040518060400160405280600981526020017f4c697175696469747900000000000000000000000000000000000000000000008152506040518060400160405280600481526020017f4c5144540000000000000000000000000000000000000000000000000000000081525081600390805190602001906200009b929190620000bd565b508060049080519060200190620000b4929190620000bd565b505050620001d2565b828054620000cb906200016d565b90600052602060002090601f016020900481019282620000ef57600085556200013b565b82601f106200010a57805160ff19168380011785556200013b565b828001600101855582156200013b579182015b828111156200013a5782518255916020019190600101906200011d565b5b5090506200014a91906200014e565b5090565b5b80821115620001695760008160009055506001016200014f565b5090565b600060028204905060018216806200018657607f821691505b602082108114156200019d576200019c620001a3565b5b50919050565b7f4e487b7100000000000000000000000000000000000000000000000000000000600052602260045260246000fd5b613b5b80620001e26000396000f3fe608060405234801561001057600080fd5b50600436106101e55760003560e01c80637bb73c971161010f578063b9844d8d116100a2578063dc937e1c11610071578063dc937e1c146105e5578063dd62ed3e14610601578063dde43cba14610631578063f713d8a81461064f576101e5565b8063b9844d8d1461054d578063c2ffbb911461057d578063c3cda520146105ad578063d505accf146105c9576101e5565b8063a457c2d7116100de578063a457c2d71461049f578063a9059cbb146104cf578063aa9fbe02146104ff578063b2f4201d1461051d576101e5565b80637bb73c97146104175780638129fc1c1461044757806395d89b4114610451578063981b24d01461046f576101e5565b80633644e515116101875780635c19a95c116101565780635c19a95c1461037d5780636f50458d1461039957806370a08231146103c957806378160376146103f9576101e5565b80633644e515146102e057806339509351146102fe57806341cbf54a1461032e5780635b3cc0cf1461034c576101e5565b806318160ddd116101c357806318160ddd1461025657806323b872dd1461027457806330adf81f146102a4578063313ce567146102c2576101e5565b806306fdde03146101ea578063095ea7b31461020857806314c586ac14610238575b600080fd5b6101f261066b565b6040516101ff919061315d565b60405180910390f35b610222600480360381019061021d9190612abd565b6106fd565b60405161022f9190612f91565b60405180910390f35b61024061071b565b60405161024d9190613127565b60405180910390f35b61025e610741565b60405161026b9190613368565b60405180910390f35b61028e600480360381019061028991906128f6565b61074b565b60405161029b9190612f91565b60405180910390f35b6102ac61084c565b6040516102b99190612fac565b60405180910390f35b6102ca610870565b6040516102d791906133ac565b60405180910390f35b6102e8610879565b6040516102f59190612fac565b60405180910390f35b61031860048036038101906103139190612abd565b61087f565b6040516103259190612f91565b60405180910390f35b61033661092b565b6040516103439190612fac565b60405180910390f35b61036660048036038101906103619190612abd565b61094f565b60405161037492919061333f565b60405180910390f35b61039760048036038101906103929190612891565b6109b8565b005b6103b360048036038101906103ae91906129e3565b6109d3565b6040516103c09190612f3f565b60405180910390f35b6103e360048036038101906103de9190612891565b6109f6565b6040516103f09190613368565b60405180910390f35b610401610a3e565b60405161040e9190613105565b60405180910390f35b610431600480360381019061042c9190612891565b610a77565b60405161043e9190613368565b60405180910390f35b61044f610a8f565b005b610459610ae9565b604051610466919061315d565b60405180910390f35b61048960048036038101906104849190612bd1565b610b7b565b6040516104969190613368565b60405180910390f35b6104b960048036038101906104b49190612abd565b610b8c565b6040516104c69190612f91565b60405180910390f35b6104e960048036038101906104e49190612abd565b610c80565b6040516104f69190612f91565b60405180910390f35b610507610c9e565b6040516105149190612fac565b60405180910390f35b610537600480360381019061053291906129e3565b610cc2565b6040516105449190613368565b60405180910390f35b61056760048036038101906105629190612891565b610ceb565b6040516105749190613368565b60405180910390f35b61059760048036038101906105929190612af9565b610d03565b6040516105a49190613368565b60405180910390f35b6105c760048036038101906105c29190612b48565b610d2d565b005b6105e360048036038101906105de9190612945565b610f6b565b005b6105ff60048036038101906105fa91906129e3565b61120a565b005b61061b600480360381019061061691906128ba565b611219565b6040516106289190613368565b60405180910390f35b6106396112a0565b6040516106469190613368565b60405180910390f35b61066960048036038101906106649190612a1f565b6112a5565b005b60606003805461067a906135bc565b80601f01602080910402602001604051908101604052809291908181526020018280546106a6906135bc565b80156106f35780601f106106c8576101008083540402835291602001916106f3565b820191906000526020600020905b8154815290600101906020018083116106d657829003601f168201915b5050505050905090565b600061071161070a611511565b8484611519565b6001905092915050565b603b60009054906101000a900473ffffffffffffffffffffffffffffffffffffffff1681565b6000600254905090565b60006107588484846116e4565b6000600160008673ffffffffffffffffffffffffffffffffffffffff1673ffffffffffffffffffffffffffffffffffffffff16815260200190815260200160002060006107a3611511565b73ffffffffffffffffffffffffffffffffffffffff1673ffffffffffffffffffffffffffffffffffffffff16815260200190815260200160002054905082811015610823576040517f08c379a000000000000000000000000000000000000000000000000000000000815260040161081a906131ff565b60405180910390fd5b6108408561082f611511565b858461083b9190613491565b611519565b60019150509392505050565b7f6e71edae12b1b97f4d1f60370fef10105fa2faae0126114a169c64845d6126c981565b60006012905090565b603c5481565b600061092161088c611511565b84846001600061089a611511565b73ffffffffffffffffffffffffffffffffffffffff1673ffffffffffffffffffffffffffffffffffffffff16815260200190815260200160002060008873ffffffffffffffffffffffffffffffffffffffff1673ffffffffffffffffffffffffffffffffffffffff1681526020019081526020016000205461091c919061340a565b611519565b6001905092915050565b7f9a9a49b990ba9bb39f8048c490a40ab25c18f55d208d5fbcf958261a9b48716d81565b6039602052816000526040600020602052806000526040600020600091509150508060000160009054906101000a90046fffffffffffffffffffffffffffffffff16908060000160109054906101000a90046fffffffffffffffffffffffffffffffff16905082565b6109c433826000611963565b6109d033826001611963565b50565b6000806109df83611af3565b925050506109ed8482611b95565b91505092915050565b60008060008373ffffffffffffffffffffffffffffffffffffffff1673ffffffffffffffffffffffffffffffffffffffff168152602001908152602001600020549050919050565b6040518060400160405280600181526020017f310000000000000000000000000000000000000000000000000000000000000081525081565b603a6020528060005260406000206000915090505481565b6000610a99611c42565b90506005548111610adf576040517f08c379a0000000000000000000000000000000000000000000000000000000008152600401610ad69061321f565b60405180910390fd5b8060058190555050565b606060048054610af8906135bc565b80601f0160208091040260200160405190810160405280929190818152602001828054610b24906135bc565b8015610b715780601f10610b4657610100808354040283529160200191610b71565b820191906000526020600020905b815481529060010190602001808311610b5457829003601f168201915b5050505050905090565b6000610b85610741565b9050919050565b60008060016000610b9b611511565b73ffffffffffffffffffffffffffffffffffffffff1673ffffffffffffffffffffffffffffffffffffffff16815260200190815260200160002060008573ffffffffffffffffffffffffffffffffffffffff1673ffffffffffffffffffffffffffffffffffffffff16815260200190815260200160002054905082811015610c58576040517f08c379a0000000000000000000000000000000000000000000000000000000008152600401610c4f9061331f565b60405180910390fd5b610c75610c63611511565b858584610c709190613491565b611519565b600191505092915050565b6000610c94610c8d611511565b84846116e4565b6001905092915050565b7f10d8d059343739efce7dad10d09f0806da52b252b3e6a7951920d2d6ec4102e581565b6000806000610cd084611af3565b5091509150610ce182828743611c4b565b9250505092915050565b60386020528060005260406000206000915090505481565b6000806000610d1184611af3565b5091509150610d2282828888611c4b565b925050509392505050565b60007f9a9a49b990ba9bb39f8048c490a40ab25c18f55d208d5fbcf958261a9b48716d878787604051602001610d669493929190613028565b6040516020818303038152906040528051906020012090506000603c5482604051602001610d95929190612f08565b604051602081830303815290604052805190602001209050600060018287878760405160008152602001604052604051610dd294939291906130c0565b6020604051602081039080840390855afa158015610df4573d6000803e3d6000fd5b505050602060405103519050600073ffffffffffffffffffffffffffffffffffffffff168173ffffffffffffffffffffffffffffffffffffffff161415610e70576040517f08c379a0000000000000000000000000000000000000000000000000000000008152600401610e67906131df565b60405180910390fd5b603860008273ffffffffffffffffffffffffffffffffffffffff1673ffffffffffffffffffffffffffffffffffffffff1681526020019081526020016000206000815480929190610ec0906135ee565b919050558814610f05576040517f08c379a0000000000000000000000000000000000000000000000000000000008152600401610efc9061325f565b60405180910390fd5b86421115610f48576040517f08c379a0000000000000000000000000000000000000000000000000000000008152600401610f3f9061323f565b60405180910390fd5b610f54818a6000611963565b610f60818a6001611963565b505050505050505050565b600073ffffffffffffffffffffffffffffffffffffffff168773ffffffffffffffffffffffffffffffffffffffff161415610fdb576040517f08c379a0000000000000000000000000000000000000000000000000000000008152600401610fd29061327f565b60405180910390fd5b8342111561101e576040517f08c379a00000000000000000000000000000000000000000000000000000000081526004016110159061323f565b60405180910390fd5b6000603860008973ffffffffffffffffffffffffffffffffffffffff1673ffffffffffffffffffffffffffffffffffffffff1681526020019081526020016000205490506000603c547f6e71edae12b1b97f4d1f60370fef10105fa2faae0126114a169c64845d6126c98a8a8a868b6040516020016110a296959493929190612fc7565b604051602081830303815290604052805190602001206040516020016110c9929190612f08565b6040516020818303038152906040528051906020012090506001818686866040516000815260200160405260405161110494939291906130c0565b6020604051602081039080840390855afa158015611126573d6000803e3d6000fd5b5050506020604051035173ffffffffffffffffffffffffffffffffffffffff168973ffffffffffffffffffffffffffffffffffffffff161461119d576040517f08c379a0000000000000000000000000000000000000000000000000000000008152600401611194906131df565b60405180910390fd5b6111b16001836120e890919063ffffffff16565b603860008b73ffffffffffffffffffffffffffffffffffffffff1673ffffffffffffffffffffffffffffffffffffffff168152602001908152602001600020819055506111ff898989611519565b505050505050505050565b611215338383611963565b5050565b6000600160008473ffffffffffffffffffffffffffffffffffffffff1673ffffffffffffffffffffffffffffffffffffffff16815260200190815260200160002060008373ffffffffffffffffffffffffffffffffffffffff1673ffffffffffffffffffffffffffffffffffffffff16815260200190815260200160002054905092915050565b600181565b60007f10d8d059343739efce7dad10d09f0806da52b252b3e6a7951920d2d6ec4102e588886001811115611302577f4e487b7100000000000000000000000000000000000000000000000000000000600052602160045260246000fd5b888860405160200161131895949392919061306d565b6040516020818303038152906040528051906020012090506000603c5482604051602001611347929190612f08565b60405160208183030381529060405280519060200120905060006001828787876040516000815260200160405260405161138494939291906130c0565b6020604051602081039080840390855afa1580156113a6573d6000803e3d6000fd5b505050602060405103519050600073ffffffffffffffffffffffffffffffffffffffff168173ffffffffffffffffffffffffffffffffffffffff161415611422576040517f08c379a0000000000000000000000000000000000000000000000000000000008152600401611419906131df565b60405180910390fd5b603860008273ffffffffffffffffffffffffffffffffffffffff1673ffffffffffffffffffffffffffffffffffffffff1681526020019081526020016000206000815480929190611472906135ee565b9190505588146114b7576040517f08c379a00000000000000000000000000000000000000000000000000000000081526004016114ae9061325f565b60405180910390fd5b864211156114fa576040517f08c379a00000000000000000000000000000000000000000000000000000000081526004016114f19061323f565b60405180910390fd5b611505818b8b611963565b50505050505050505050565b600033905090565b600073ffffffffffffffffffffffffffffffffffffffff168373ffffffffffffffffffffffffffffffffffffffff161415611589576040517f08c379a0000000000000000000000000000000000000000000000000000000008152600401611580906132bf565b60405180910390fd5b600073ffffffffffffffffffffffffffffffffffffffff168273ffffffffffffffffffffffffffffffffffffffff1614156115f9576040517f08c379a00000000000000000000000000000000000000000000000000000000081526004016115f09061319f565b60405180910390fd5b80600160008573ffffffffffffffffffffffffffffffffffffffff1673ffffffffffffffffffffffffffffffffffffffff16815260200190815260200160002060008473ffffffffffffffffffffffffffffffffffffffff1673ffffffffffffffffffffffffffffffffffffffff168152602001908152602001600020819055508173ffffffffffffffffffffffffffffffffffffffff168373ffffffffffffffffffffffffffffffffffffffff167f8c5be1e5ebec7d5bd14f71427d1e84f3dd0314c0f7b2291e5b200ac8c7c3b925836040516116d79190613368565b60405180910390a3505050565b600073ffffffffffffffffffffffffffffffffffffffff168373ffffffffffffffffffffffffffffffffffffffff161415611754576040517f08c379a000000000000000000000000000000000000000000000000000000000815260040161174b9061329f565b60405180910390fd5b600073ffffffffffffffffffffffffffffffffffffffff168273ffffffffffffffffffffffffffffffffffffffff1614156117c4576040517f08c379a00000000000000000000000000000000000000000000000000000000081526004016117bb9061317f565b60405180910390fd5b6117cf8383836120fe565b60008060008573ffffffffffffffffffffffffffffffffffffffff1673ffffffffffffffffffffffffffffffffffffffff16815260200190815260200160002054905081811015611855576040517f08c379a000000000000000000000000000000000000000000000000000000000815260040161184c906131bf565b60405180910390fd5b81816118619190613491565b6000808673ffffffffffffffffffffffffffffffffffffffff1673ffffffffffffffffffffffffffffffffffffffff16815260200190815260200160002081905550816000808573ffffffffffffffffffffffffffffffffffffffff1673ffffffffffffffffffffffffffffffffffffffff16815260200190815260200160002060008282546118f1919061340a565b925050819055508273ffffffffffffffffffffffffffffffffffffffff168473ffffffffffffffffffffffffffffffffffffffff167fddf252ad1be2c89b69c2b068fc378daa952ba7f163c4a11628f55a4df523b3ef846040516119559190613368565b60405180910390a350505050565b600073ffffffffffffffffffffffffffffffffffffffff168273ffffffffffffffffffffffffffffffffffffffff1614156119d3576040517f08c379a00000000000000000000000000000000000000000000000000000000081526004016119ca906132ff565b60405180910390fd5b60006119de82611af3565b9250505060006119ed856109f6565b905060006119fb8684611b95565b9050848360008873ffffffffffffffffffffffffffffffffffffffff1673ffffffffffffffffffffffffffffffffffffffff16815260200190815260200160002060006101000a81548173ffffffffffffffffffffffffffffffffffffffff021916908373ffffffffffffffffffffffffffffffffffffffff160217905550611a86818684876121f4565b8473ffffffffffffffffffffffffffffffffffffffff168673ffffffffffffffffffffffffffffffffffffffff167fe8d51c8e11bd570db1734c8ec775785330e77007feed45c43b608ef33ff914bd86604051611ae39190613142565b60405180910390a3505050505050565b6000806000806001811115611b31577f4e487b7100000000000000000000000000000000000000000000000000000000600052602160045260246000fd5b846001811115611b6a577f4e487b7100000000000000000000000000000000000000000000000000000000600052602160045260246000fd5b1415611b81576039603a603d925092509250611b8e565b603e603f60409250925092505b9193909250565b6000808260008573ffffffffffffffffffffffffffffffffffffffff1673ffffffffffffffffffffffffffffffffffffffff16815260200190815260200160002060009054906101000a900473ffffffffffffffffffffffffffffffffffffffff169050600073ffffffffffffffffffffffffffffffffffffffff168173ffffffffffffffffffffffffffffffffffffffff161415611c375783915050611c3c565b809150505b92915050565b60006001905090565b600043821115611c90576040517f08c379a0000000000000000000000000000000000000000000000000000000008152600401611c87906132df565b60405180910390fd5b60008460008573ffffffffffffffffffffffffffffffffffffffff1673ffffffffffffffffffffffffffffffffffffffff1681526020019081526020016000205490506000811415611ced57611ce5846109f6565b9150506120e0565b828660008673ffffffffffffffffffffffffffffffffffffffff1673ffffffffffffffffffffffffffffffffffffffff1681526020019081526020016000206000600184611d3b9190613491565b815260200190815260200160002060000160009054906101000a90046fffffffffffffffffffffffffffffffff166fffffffffffffffffffffffffffffffff1611611e15578560008573ffffffffffffffffffffffffffffffffffffffff1673ffffffffffffffffffffffffffffffffffffffff1681526020019081526020016000206000600183611dcd9190613491565b815260200190815260200160002060000160109054906101000a90046fffffffffffffffffffffffffffffffff166fffffffffffffffffffffffffffffffff169150506120e0565b828660008673ffffffffffffffffffffffffffffffffffffffff1673ffffffffffffffffffffffffffffffffffffffff168152602001908152602001600020600080815260200190815260200160002060000160009054906101000a90046fffffffffffffffffffffffffffffffff166fffffffffffffffffffffffffffffffff161115611ea75760009150506120e0565b600080600183611eb79190613491565b90505b8181111561205957600060028383611ed29190613491565b611edc9190613460565b82611ee79190613491565b905060008960008973ffffffffffffffffffffffffffffffffffffffff1673ffffffffffffffffffffffffffffffffffffffff16815260200190815260200160002060008381526020019081526020016000206040518060400160405290816000820160009054906101000a90046fffffffffffffffffffffffffffffffff166fffffffffffffffffffffffffffffffff166fffffffffffffffffffffffffffffffff1681526020016000820160109054906101000a90046fffffffffffffffffffffffffffffffff166fffffffffffffffffffffffffffffffff166fffffffffffffffffffffffffffffffff168152505090508681600001516fffffffffffffffffffffffffffffffff16141561201c5780602001516fffffffffffffffffffffffffffffffff16955050505050506120e0565b8681600001516fffffffffffffffffffffffffffffffff16101561204257819350612052565b60018261204f9190613491565b92505b5050611eba565b8760008773ffffffffffffffffffffffffffffffffffffffff1673ffffffffffffffffffffffffffffffffffffffff168152602001908152602001600020600083815260200190815260200160002060000160109054906101000a90046fffffffffffffffffffffffffffffffff166fffffffffffffffffffffffffffffffff1693505050505b949350505050565b600081836120f6919061340a565b905092915050565b600061210b84603d611b95565b9050600061211a84603d611b95565b905061212982828560006121f4565b6000612136866040611b95565b90506000612145866040611b95565b905061215482828760016121f4565b6000603b60009054906101000a900473ffffffffffffffffffffffffffffffffffffffff1690508073ffffffffffffffffffffffffffffffffffffffff16634a3931498989896040518463ffffffff1660e01b81526004016121b893929190612f5a565b600060405180830381600087803b1580156121d257600080fd5b505af11580156121e6573d6000803e3d6000fd5b505050505050505050505050565b8273ffffffffffffffffffffffffffffffffffffffff168473ffffffffffffffffffffffffffffffffffffffff16141561222d57612589565b60008061223983611af3565b5091509150600073ffffffffffffffffffffffffffffffffffffffff168673ffffffffffffffffffffffffffffffffffffffff16146123e2576000808260008973ffffffffffffffffffffffffffffffffffffffff1673ffffffffffffffffffffffffffffffffffffffff16815260200190815260200160002054905060008114612352578360008973ffffffffffffffffffffffffffffffffffffffff1673ffffffffffffffffffffffffffffffffffffffff168152602001908152602001600020600060018361230b9190613491565b815260200190815260200160002060000160109054906101000a90046fffffffffffffffffffffffffffffffff166fffffffffffffffffffffffffffffffff16915061235e565b61235b886109f6565b91505b61237d84848a856123788b8861258f90919063ffffffff16565b6125a5565b8773ffffffffffffffffffffffffffffffffffffffff167fa0a19463ee116110c9b282012d9b65cc5522dc38a9520340cbaf3142e550127f6123c8888561258f90919063ffffffff16565b876040516123d7929190613383565b60405180910390a250505b600073ffffffffffffffffffffffffffffffffffffffff168573ffffffffffffffffffffffffffffffffffffffff1614612586576000808260008873ffffffffffffffffffffffffffffffffffffffff1673ffffffffffffffffffffffffffffffffffffffff168152602001908152602001600020549050600081146124f6578360008873ffffffffffffffffffffffffffffffffffffffff1673ffffffffffffffffffffffffffffffffffffffff16815260200190815260200160002060006001836124af9190613491565b815260200190815260200160002060000160109054906101000a90046fffffffffffffffffffffffffffffffff166fffffffffffffffffffffffffffffffff169150612502565b6124ff876109f6565b91505b6125218484898561251c8b886120e890919063ffffffff16565b6125a5565b8673ffffffffffffffffffffffffffffffffffffffff167fa0a19463ee116110c9b282012d9b65cc5522dc38a9520340cbaf3142e550127f61256c88856120e890919063ffffffff16565b8760405161257b929190613383565b60405180910390a250505b50505b50505050565b6000818361259d9190613491565b905092915050565b600043905060008560008673ffffffffffffffffffffffffffffffffffffffff1673ffffffffffffffffffffffffffffffffffffffff16815260200190815260200160002054905060008760008773ffffffffffffffffffffffffffffffffffffffff1673ffffffffffffffffffffffffffffffffffffffff1681526020019081526020016000209050600082141580156126a05750826fffffffffffffffffffffffffffffffff1681600060018561265e9190613491565b815260200190815260200160002060000160009054906101000a90046fffffffffffffffffffffffffffffffff166fffffffffffffffffffffffffffffffff16145b1561270257838160006001856126b69190613491565b815260200190815260200160002060000160106101000a8154816fffffffffffffffffffffffffffffffff02191690836fffffffffffffffffffffffffffffffff16021790555061281e565b6040518060400160405280846fffffffffffffffffffffffffffffffff168152602001856fffffffffffffffffffffffffffffffff1681525081600084815260200190815260200160002060008201518160000160006101000a8154816fffffffffffffffffffffffffffffffff02191690836fffffffffffffffffffffffffffffffff16021790555060208201518160000160106101000a8154816fffffffffffffffffffffffffffffffff02191690836fffffffffffffffffffffffffffffffff1602179055509050506001826127db919061340a565b8760008873ffffffffffffffffffffffffffffffffffffffff1673ffffffffffffffffffffffffffffffffffffffff168152602001908152602001600020819055505b5050505050505050565b60008135905061283781613ab9565b92915050565b60008135905061284c81613ad0565b92915050565b60008135905061286181613ae7565b92915050565b60008135905061287681613af7565b92915050565b60008135905061288b81613b0e565b92915050565b6000602082840312156128a357600080fd5b60006128b184828501612828565b91505092915050565b600080604083850312156128cd57600080fd5b60006128db85828601612828565b92505060206128ec85828601612828565b9150509250929050565b60008060006060848603121561290b57600080fd5b600061291986828701612828565b935050602061292a86828701612828565b925050604061293b86828701612867565b9150509250925092565b600080600080600080600060e0888a03121561296057600080fd5b600061296e8a828b01612828565b975050602061297f8a828b01612828565b96505060406129908a828b01612867565b95505060606129a18a828b01612867565b94505060806129b28a828b0161287c565b93505060a06129c38a828b0161283d565b92505060c06129d48a828b0161283d565b91505092959891949750929550565b600080604083850312156129f657600080fd5b6000612a0485828601612828565b9250506020612a1585828601612852565b9150509250929050565b600080600080600080600060e0888a031215612a3a57600080fd5b6000612a488a828b01612828565b9750506020612a598a828b01612852565b9650506040612a6a8a828b01612867565b9550506060612a7b8a828b01612867565b9450506080612a8c8a828b0161287c565b93505060a0612a9d8a828b0161283d565b92505060c0612aae8a828b0161283d565b91505092959891949750929550565b60008060408385031215612ad057600080fd5b6000612ade85828601612828565b9250506020612aef85828601612867565b9150509250929050565b600080600060608486031215612b0e57600080fd5b6000612b1c86828701612828565b9350506020612b2d86828701612867565b9250506040612b3e86828701612852565b9150509250925092565b60008060008060008060c08789031215612b6157600080fd5b6000612b6f89828a01612828565b9650506020612b8089828a01612867565b9550506040612b9189828a01612867565b9450506060612ba289828a0161287c565b9350506080612bb389828a0161283d565b92505060a0612bc489828a0161283d565b9150509295509295509295565b600060208284031215612be357600080fd5b6000612bf184828501612867565b91505092915050565b612c03816134c5565b82525050565b612c12816134d7565b82525050565b612c21816134e3565b82525050565b612c38612c33826134e3565b613637565b82525050565b6000612c49826133c7565b612c5381856133dd565b9350612c63818560208601613589565b612c6c816136fd565b840191505092915050565b612c8081613553565b82525050565b612c8f81613577565b82525050565b6000612ca0826133d2565b612caa81856133ee565b9350612cba818560208601613589565b612cc3816136fd565b840191505092915050565b6000612cdb6023836133ee565b9150612ce68261370e565b604082019050919050565b6000612cfe6022836133ee565b9150612d098261375d565b604082019050919050565b6000612d216002836133ff565b9150612d2c826137ac565b600282019050919050565b6000612d446026836133ee565b9150612d4f826137d5565b604082019050919050565b6000612d676011836133ee565b9150612d7282613824565b602082019050919050565b6000612d8a6028836133ee565b9150612d958261384d565b604082019050919050565b6000612dad602e836133ee565b9150612db88261389c565b604082019050919050565b6000612dd06012836133ee565b9150612ddb826138eb565b602082019050919050565b6000612df3600d836133ee565b9150612dfe82613914565b602082019050919050565b6000612e16600d836133ee565b9150612e218261393d565b602082019050919050565b6000612e396025836133ee565b9150612e4482613966565b604082019050919050565b6000612e5c6024836133ee565b9150612e67826139b5565b604082019050919050565b6000612e7f6014836133ee565b9150612e8a82613a04565b602082019050919050565b6000612ea26011836133ee565b9150612ead82613a2d565b602082019050919050565b6000612ec56025836133ee565b9150612ed082613a56565b604082019050919050565b612ee481613500565b82525050565b612ef38161353c565b82525050565b612f0281613546565b82525050565b6000612f1382612d14565b9150612f1f8285612c27565b602082019150612f2f8284612c27565b6020820191508190509392505050565b6000602082019050612f546000830184612bfa565b92915050565b6000606082019050612f6f6000830186612bfa565b612f7c6020830185612bfa565b612f896040830184612eea565b949350505050565b6000602082019050612fa66000830184612c09565b92915050565b6000602082019050612fc16000830184612c18565b92915050565b600060c082019050612fdc6000830189612c18565b612fe96020830188612bfa565b612ff66040830187612bfa565b6130036060830186612eea565b6130106080830185612eea565b61301d60a0830184612eea565b979650505050505050565b600060808201905061303d6000830187612c18565b61304a6020830186612bfa565b6130576040830185612eea565b6130646060830184612eea565b95945050505050565b600060a0820190506130826000830188612c18565b61308f6020830187612bfa565b61309c6040830186612eea565b6130a96060830185612eea565b6130b66080830184612eea565b9695505050505050565b60006080820190506130d56000830187612c18565b6130e26020830186612ef9565b6130ef6040830185612c18565b6130fc6060830184612c18565b95945050505050565b6000602082019050818103600083015261311f8184612c3e565b905092915050565b600060208201905061313c6000830184612c77565b92915050565b60006020820190506131576000830184612c86565b92915050565b600060208201905081810360008301526131778184612c95565b905092915050565b6000602082019050818103600083015261319881612cce565b9050919050565b600060208201905081810360008301526131b881612cf1565b9050919050565b600060208201905081810360008301526131d881612d37565b9050919050565b600060208201905081810360008301526131f881612d5a565b9050919050565b6000602082019050818103600083015261321881612d7d565b9050919050565b6000602082019050818103600083015261323881612da0565b9050919050565b6000602082019050818103600083015261325881612dc3565b9050919050565b6000602082019050818103600083015261327881612de6565b9050919050565b6000602082019050818103600083015261329881612e09565b9050919050565b600060208201905081810360008301526132b881612e2c565b9050919050565b600060208201905081810360008301526132d881612e4f565b9050919050565b600060208201905081810360008301526132f881612e72565b9050919050565b6000602082019050818103600083015261331881612e95565b9050919050565b6000602082019050818103600083015261333881612eb8565b9050919050565b60006040820190506133546000830185612edb565b6133616020830184612edb565b9392505050565b600060208201905061337d6000830184612eea565b92915050565b60006040820190506133986000830185612eea565b6133a56020830184612c86565b9392505050565b60006020820190506133c16000830184612ef9565b92915050565b600081519050919050565b600081519050919050565b600082825260208201905092915050565b600082825260208201905092915050565b600081905092915050565b60006134158261353c565b91506134208361353c565b9250827fffffffffffffffffffffffffffffffffffffffffffffffffffffffffffffffff0382111561345557613454613641565b5b828201905092915050565b600061346b8261353c565b91506134768361353c565b92508261348657613485613670565b5b828204905092915050565b600061349c8261353c565b91506134a78361353c565b9250828210156134ba576134b9613641565b5b828203905092915050565b60006134d08261351c565b9050919050565b60008115159050919050565b6000819050919050565b60008190506134fb82613aa5565b919050565b60006fffffffffffffffffffffffffffffffff82169050919050565b600073ffffffffffffffffffffffffffffffffffffffff82169050919050565b6000819050919050565b600060ff82169050919050565b600061355e82613565565b9050919050565b60006135708261351c565b9050919050565b6000613582826134ed565b9050919050565b60005b838110156135a757808201518184015260208101905061358c565b838111156135b6576000848401525b50505050565b600060028204905060018216806135d457607f821691505b602082108114156135e8576135e76136ce565b5b50919050565b60006135f98261353c565b91507fffffffffffffffffffffffffffffffffffffffffffffffffffffffffffffffff82141561362c5761362b613641565b5b600182019050919050565b6000819050919050565b7f4e487b7100000000000000000000000000000000000000000000000000000000600052601160045260246000fd5b7f4e487b7100000000000000000000000000000000000000000000000000000000600052601260045260246000fd5b7f4e487b7100000000000000000000000000000000000000000000000000000000600052602160045260246000fd5b7f4e487b7100000000000000000000000000000000000000000000000000000000600052602260045260246000fd5b6000601f19601f8301169050919050565b7f45524332303a207472616e7366657220746f20746865207a65726f206164647260008201527f6573730000000000000000000000000000000000000000000000000000000000602082015250565b7f45524332303a20617070726f766520746f20746865207a65726f20616464726560008201527f7373000000000000000000000000000000000000000000000000000000000000602082015250565b7f1901000000000000000000000000000000000000000000000000000000000000600082015250565b7f45524332303a207472616e7366657220616d6f756e742065786365656473206260008201527f616c616e63650000000000000000000000000000000000000000000000000000602082015250565b7f494e56414c49445f5349474e4154555245000000000000000000000000000000600082015250565b7f45524332303a207472616e7366657220616d6f756e742065786365656473206160008201527f6c6c6f77616e6365000000000000000000000000000000000000000000000000602082015250565b7f436f6e747261637420696e7374616e63652068617320616c726561647920626560008201527f656e20696e697469616c697a6564000000000000000000000000000000000000602082015250565b7f494e56414c49445f45585049524154494f4e0000000000000000000000000000600082015250565b7f494e56414c49445f4e4f4e434500000000000000000000000000000000000000600082015250565b7f494e56414c49445f4f574e455200000000000000000000000000000000000000600082015250565b7f45524332303a207472616e736665722066726f6d20746865207a65726f20616460008201527f6472657373000000000000000000000000000000000000000000000000000000602082015250565b7f45524332303a20617070726f76652066726f6d20746865207a65726f2061646460008201527f7265737300000000000000000000000000000000000000000000000000000000602082015250565b7f494e56414c49445f424c4f434b5f4e554d424552000000000000000000000000600082015250565b7f494e56414c49445f44454c454741544545000000000000000000000000000000600082015250565b7f45524332303a2064656372656173656420616c6c6f77616e63652062656c6f7760008201527f207a65726f000000000000000000000000000000000000000000000000000000602082015250565b60028110613ab657613ab561369f565b5b50565b613ac2816134c5565b8114613acd57600080fd5b50565b613ad9816134e3565b8114613ae457600080fd5b50565b60028110613af457600080fd5b50565b613b008161353c565b8114613b0b57600080fd5b50565b613b1781613546565b8114613b2257600080fd5b5056fea2646970667358221220b2e4734151d010a58b69c4d224557d7e6bdc5427d51435aacc85f95808fd33ff64736f6c63430008030033",
  "immutableReferences": {},
  "source": "// SPDX-License-Identifier: agpl-3.0\r\npragma solidity ^0.8.3;\r\n\r\nimport {ERC20} from '../open-zeppelin/ERC20.sol';\r\nimport {ITransferHook} from '../interfaces/ITransferHook.sol';\r\nimport {VersionedInitializable} from '../utils/VersionedInitializable.sol';\r\nimport {GovernancePowerDelegationERC20} from './base/GovernancePowerDelegationERC20.sol';\r\nimport {SafeMath} from '../open-zeppelin/SafeMath.sol';\r\n\r\n/**\r\n * @notice implementation of the Liquidity token contract\r\n * @author Liquidity\r\n */\r\ncontract Liquidity is GovernancePowerDelegationERC20, VersionedInitializable {\r\n  using SafeMath for uint256;\r\n\r\n  string internal constant NAME = 'Liquidity';\r\n  string internal constant SYMBOL = 'LQDT';\r\n  uint8 internal constant DECIMALS = 18;\r\n\r\n  uint256 public constant REVISION = 1;\r\n\r\n  /// @dev owner => next valid nonce to submit with permit()\r\n  mapping(address => uint256) public _nonces;\r\n\r\n  mapping(address => mapping(uint256 => Snapshot)) public _votingSnapshots;\r\n\r\n  mapping(address => uint256) public _votingSnapshotsCounts;\r\n\r\n  /// @dev reference to the Liquidity governance contract to call (if initialized) on _beforeTokenTransfer\r\n  /// !!! IMPORTANT The Liquidity governance is considered a trustable contract, being its responsibility\r\n  /// to control all potential reentrancies by calling back the Liquidity\r\n  ITransferHook public _liquidityGovernance;\r\n\r\n  bytes32 public DOMAIN_SEPARATOR;\r\n  bytes public constant EIP712_REVISION = bytes('1');\r\n  bytes32 internal constant EIP712_DOMAIN = keccak256(\r\n    'EIP712Domain(string name,string version,uint256 chainId,address verifyingContract)'\r\n  );\r\n  bytes32 public constant PERMIT_TYPEHASH = keccak256(\r\n    'Permit(address owner,address spender,uint256 value,uint256 nonce,uint256 deadline)'\r\n  );\r\n\r\n  mapping(address => address) internal _votingDelegates;\r\n\r\n  mapping(address => mapping(uint256 => Snapshot)) internal _propositionPowerSnapshots;\r\n  mapping(address => uint256) internal _propositionPowerSnapshotsCounts;\r\n\r\n  mapping(address => address) internal _propositionPowerDelegates;\r\n\r\n  constructor() ERC20(NAME, SYMBOL) {}\r\n\r\n  /**\r\n   * @dev initializes the contract upon assignment to the InitializableAdminUpgradeabilityProxy\r\n   */\r\n  function initialize() external initializer {}\r\n\r\n  /**\r\n   * @dev implements the permit function\r\n   * @param owner the owner of the funds\r\n   * @param spender the spender\r\n   * @param value the amount\r\n   * @param deadline the deadline timestamp, type(uint256).max for no deadline\r\n   * @param v signature param\r\n   * @param s signature param\r\n   * @param r signature param\r\n   */\r\n\r\n  function permit(\r\n    address owner,\r\n    address spender,\r\n    uint256 value,\r\n    uint256 deadline,\r\n    uint8 v,\r\n    bytes32 r,\r\n    bytes32 s\r\n  ) external {\r\n    require(owner != address(0), 'INVALID_OWNER');\r\n    //solium-disable-next-line\r\n    require(block.timestamp <= deadline, 'INVALID_EXPIRATION');\r\n    uint256 currentValidNonce = _nonces[owner];\r\n    bytes32 digest = keccak256(\r\n      abi.encodePacked(\r\n        '\\x19\\x01',\r\n        DOMAIN_SEPARATOR,\r\n        keccak256(abi.encode(PERMIT_TYPEHASH, owner, spender, value, currentValidNonce, deadline))\r\n      )\r\n    );\r\n\r\n    require(owner == ecrecover(digest, v, r, s), 'INVALID_SIGNATURE');\r\n    _nonces[owner] = currentValidNonce.add(1);\r\n    _approve(owner, spender, value);\r\n  }\r\n\r\n  /**\r\n   * @dev returns the revision of the implementation contract\r\n   */\r\n  function getRevision() internal override pure returns (uint256) {\r\n    return REVISION;\r\n  }\r\n\r\n  /**\r\n   * @dev Writes a snapshot before any operation involving transfer of value: _transfer, _mint and _burn\r\n   * - On _transfer, it writes snapshots for both \"from\" and \"to\"\r\n   * - On _mint, only for _to\r\n   * - On _burn, only for _from\r\n   * @param from the from address\r\n   * @param to the to address\r\n   * @param amount the amount to transfer\r\n   */\r\n  function _beforeTokenTransfer(\r\n    address from,\r\n    address to,\r\n    uint256 amount\r\n  ) internal override {\r\n    address votingFromDelegatee = _getDelegatee(from, _votingDelegates);\r\n    address votingToDelegatee = _getDelegatee(to, _votingDelegates);\r\n\r\n    _moveDelegatesByType(\r\n      votingFromDelegatee,\r\n      votingToDelegatee,\r\n      amount,\r\n      DelegationType.VOTING_POWER\r\n    );\r\n\r\n    address propPowerFromDelegatee = _getDelegatee(from, _propositionPowerDelegates);\r\n    address propPowerToDelegatee = _getDelegatee(to, _propositionPowerDelegates);\r\n\r\n    _moveDelegatesByType(\r\n      propPowerFromDelegatee,\r\n      propPowerToDelegatee,\r\n      amount,\r\n      DelegationType.PROPOSITION_POWER\r\n    );\r\n\r\n    // caching the Liquidity governance address to avoid multiple state loads\r\n    ITransferHook liquidityGovernance = _liquidityGovernance;\r\n    //if (liquidityGovernance != ITransferHook(0)) { tofix\r\n      liquidityGovernance.onTransfer(from, to, amount);\r\n    //}\r\n  }\r\n\r\n  function _getDelegationDataByType(DelegationType delegationType)\r\n    internal\r\n    override\r\n    view\r\n    returns (\r\n      mapping(address => mapping(uint256 => Snapshot)) storage, //snapshots\r\n      mapping(address => uint256) storage, //snapshots count\r\n      mapping(address => address) storage //delegatees list\r\n    )\r\n  {\r\n    if (delegationType == DelegationType.VOTING_POWER) {\r\n      return (_votingSnapshots, _votingSnapshotsCounts, _votingDelegates);\r\n    } else {\r\n      return (\r\n        _propositionPowerSnapshots,\r\n        _propositionPowerSnapshotsCounts,\r\n        _propositionPowerDelegates\r\n      );\r\n    }\r\n  }\r\n\r\n  /**\r\n   * @dev Delegates power from signatory to `delegatee`\r\n   * @param delegatee The address to delegate votes to\r\n   * @param delegationType the type of delegation (VOTING_POWER, PROPOSITION_POWER)\r\n   * @param nonce The contract state required to match the signature\r\n   * @param expiry The time at which to expire the signature\r\n   * @param v The recovery byte of the signature\r\n   * @param r Half of the ECDSA signature pair\r\n   * @param s Half of the ECDSA signature pair\r\n   */\r\n  function delegateByTypeBySig(\r\n    address delegatee,\r\n    DelegationType delegationType,\r\n    uint256 nonce,\r\n    uint256 expiry,\r\n    uint8 v,\r\n    bytes32 r,\r\n    bytes32 s\r\n  ) public {\r\n    bytes32 structHash = keccak256(\r\n      abi.encode(DELEGATE_BY_TYPE_TYPEHASH, delegatee, uint256(delegationType), nonce, expiry)\r\n    );\r\n    bytes32 digest = keccak256(abi.encodePacked('\\x19\\x01', DOMAIN_SEPARATOR, structHash));\r\n    address signatory = ecrecover(digest, v, r, s);\r\n    require(signatory != address(0), 'INVALID_SIGNATURE');\r\n    require(nonce == _nonces[signatory]++, 'INVALID_NONCE');\r\n    require(block.timestamp <= expiry, 'INVALID_EXPIRATION');\r\n    _delegateByType(signatory, delegatee, delegationType);\r\n  }\r\n\r\n  /**\r\n   * @dev Delegates power from signatory to `delegatee`\r\n   * @param delegatee The address to delegate votes to\r\n   * @param nonce The contract state required to match the signature\r\n   * @param expiry The time at which to expire the signature\r\n   * @param v The recovery byte of the signature\r\n   * @param r Half of the ECDSA signature pair\r\n   * @param s Half of the ECDSA signature pair\r\n   */\r\n  function delegateBySig(\r\n    address delegatee,\r\n    uint256 nonce,\r\n    uint256 expiry,\r\n    uint8 v,\r\n    bytes32 r,\r\n    bytes32 s\r\n  ) public {\r\n    bytes32 structHash = keccak256(abi.encode(DELEGATE_TYPEHASH, delegatee, nonce, expiry));\r\n    bytes32 digest = keccak256(abi.encodePacked('\\x19\\x01', DOMAIN_SEPARATOR, structHash));\r\n    address signatory = ecrecover(digest, v, r, s);\r\n    require(signatory != address(0), 'INVALID_SIGNATURE');\r\n    require(nonce == _nonces[signatory]++, 'INVALID_NONCE');\r\n    require(block.timestamp <= expiry, 'INVALID_EXPIRATION');\r\n    _delegateByType(signatory, delegatee, DelegationType.VOTING_POWER);\r\n    _delegateByType(signatory, delegatee, DelegationType.PROPOSITION_POWER);\r\n  }\r\n}",
  "sourcePath": "D:/projetos/projetos/novo token/contracts/Liquidity.sol",
  "compiler": {
    "name": "solc",
    "version": "0.8.3+commit.8d00100c.Emscripten.clang"
  },
  "schemaVersion": "3.3.4",
  "updatedAt": "2021-04-24T16:08:56.018Z",
  "networkType": "ethereum",
  "devdoc": {
    "author": "Liquidity",
    "kind": "dev",
    "methods": {
      "allowance(address,address)": {
        "details": "See {IERC20-allowance}."
      },
      "approve(address,uint256)": {
        "details": "See {IERC20-approve}. Requirements: - `spender` cannot be the zero address."
      },
      "balanceOf(address)": {
        "details": "See {IERC20-balanceOf}."
      },
      "decimals()": {
        "details": "Returns the number of decimals used to get its user representation. For example, if `decimals` equals `2`, a balance of `505` tokens should be displayed to a user as `5,05` (`505 / 10 ** 2`). Tokens usually opt for a value of 18, imitating the relationship between Ether and Wei. This is the value {ERC20} uses, unless this function is overridden; NOTE: This information is only used for _display_ purposes: it in no way affects any of the arithmetic of the contract, including {IERC20-balanceOf} and {IERC20-transfer}."
      },
      "decreaseAllowance(address,uint256)": {
        "details": "Atomically decreases the allowance granted to `spender` by the caller. This is an alternative to {approve} that can be used as a mitigation for problems described in {IERC20-approve}. Emits an {Approval} event indicating the updated allowance. Requirements: - `spender` cannot be the zero address. - `spender` must have allowance for the caller of at least `subtractedValue`."
      },
      "delegate(address)": {
        "details": "delegates all the powers to a specific user",
        "params": {
          "delegatee": "the user to which the power will be delegated*"
        }
      },
      "delegateBySig(address,uint256,uint256,uint8,bytes32,bytes32)": {
        "details": "Delegates power from signatory to `delegatee`",
        "params": {
          "delegatee": "The address to delegate votes to",
          "expiry": "The time at which to expire the signature",
          "nonce": "The contract state required to match the signature",
          "r": "Half of the ECDSA signature pair",
          "s": "Half of the ECDSA signature pair",
          "v": "The recovery byte of the signature"
        }
      },
      "delegateByType(address,uint8)": {
        "details": "delegates one specific power to a delegatee",
        "params": {
          "delegatee": "the user which delegated power has changed",
          "delegationType": "the type of delegation (VOTING_POWER, PROPOSITION_POWER)*"
        }
      },
      "delegateByTypeBySig(address,uint8,uint256,uint256,uint8,bytes32,bytes32)": {
        "details": "Delegates power from signatory to `delegatee`",
        "params": {
          "delegatee": "The address to delegate votes to",
          "delegationType": "the type of delegation (VOTING_POWER, PROPOSITION_POWER)",
          "expiry": "The time at which to expire the signature",
          "nonce": "The contract state required to match the signature",
          "r": "Half of the ECDSA signature pair",
          "s": "Half of the ECDSA signature pair",
          "v": "The recovery byte of the signature"
        }
      },
      "getDelegateeByType(address,uint8)": {
        "details": "returns the delegatee of an user",
        "params": {
          "delegator": "the address of the delegator*"
        }
      },
      "getPowerAtBlock(address,uint256,uint8)": {
        "details": "returns the delegated power of a user at a certain block",
        "params": {
          "user": "the user*"
        }
      },
      "getPowerCurrent(address,uint8)": {
        "details": "returns the current delegated power of a user. The current power is the power delegated at the time of the last snapshot",
        "params": {
          "user": "the user*"
        }
      },
      "increaseAllowance(address,uint256)": {
        "details": "Atomically increases the allowance granted to `spender` by the caller. This is an alternative to {approve} that can be used as a mitigation for problems described in {IERC20-approve}. Emits an {Approval} event indicating the updated allowance. Requirements: - `spender` cannot be the zero address."
      },
      "initialize()": {
        "details": "initializes the contract upon assignment to the InitializableAdminUpgradeabilityProxy"
      },
      "name()": {
        "details": "Returns the name of the token."
      },
      "permit(address,address,uint256,uint256,uint8,bytes32,bytes32)": {
        "details": "implements the permit function",
        "params": {
          "deadline": "the deadline timestamp, type(uint256).max for no deadline",
          "owner": "the owner of the funds",
          "r": "signature param",
          "s": "signature param",
          "spender": "the spender",
          "v": "signature param",
          "value": "the amount"
        }
      },
      "symbol()": {
        "details": "Returns the symbol of the token, usually a shorter version of the name."
      },
      "totalSupply()": {
        "details": "See {IERC20-totalSupply}."
      },
      "totalSupplyAt(uint256)": {
        "details": "returns the total supply at a certain block number used by the voting strategy contracts to calculate the total votes needed for threshold/quorum In this initial implementation with no Liquidity minting, simply returns the current supply A snapshots mapping will need to be added in case a mint function is added to the Liquidity token in the future*"
      },
      "transfer(address,uint256)": {
        "details": "See {IERC20-transfer}. Requirements: - `recipient` cannot be the zero address. - the caller must have a balance of at least `amount`."
      },
      "transferFrom(address,address,uint256)": {
        "details": "See {IERC20-transferFrom}. Emits an {Approval} event indicating the updated allowance. This is not required by the EIP. See the note at the beginning of {ERC20}. Requirements: - `sender` and `recipient` cannot be the zero address. - `sender` must have a balance of at least `amount`. - the caller must have allowance for ``sender``'s tokens of at least `amount`."
      }
    },
    "stateVariables": {
      "_liquidityGovernance": {
        "details": "reference to the Liquidity governance contract to call (if initialized) on _beforeTokenTransfer !!! IMPORTANT The Liquidity governance is considered a trustable contract, being its responsibility to control all potential reentrancies by calling back the Liquidity"
      },
      "_nonces": {
        "details": "owner => next valid nonce to submit with permit()"
      }
    },
    "version": 1
  },
  "userdoc": {
    "kind": "user",
    "methods": {
      "DELEGATE_BY_TYPE_TYPEHASH()": {
        "notice": "The EIP-712 typehash for the delegation struct used by the contract"
      }
    },
    "notice": "implementation of the Liquidity token contract",
    "version": 1
  }
}